{
  "address": "0xCf7Ed3AccA5a467e9e704C703E8D87F634fB0Fc9",
  "abi": [
    {
      "inputs": [
        {
          "internalType": "address",
          "name": "vrfCoordinatorV2",
          "type": "address"
        },
        {
          "internalType": "uint256",
          "name": "entranceFee",
          "type": "uint256"
        },
        {
          "internalType": "bytes32",
          "name": "keyHash",
          "type": "bytes32"
        },
        {
          "internalType": "uint64",
          "name": "subscriptionId",
          "type": "uint64"
        },
        {
          "internalType": "uint32",
          "name": "callbackGasLimit",
          "type": "uint32"
        },
        {
          "internalType": "uint256",
          "name": "interval",
          "type": "uint256"
        }
      ],
      "stateMutability": "nonpayable",
      "type": "constructor"
    },
    {
      "inputs": [
        {
          "internalType": "address",
          "name": "have",
          "type": "address"
        },
        {
          "internalType": "address",
          "name": "want",
          "type": "address"
        }
      ],
      "name": "OnlyCoordinatorCanFulfill",
      "type": "error"
    },
    {
      "inputs": [],
      "name": "Raffle__NotEnoughETHEntered",
      "type": "error"
    },
    {
      "inputs": [],
      "name": "Raffle__NotOpen",
      "type": "error"
    },
    {
      "inputs": [],
      "name": "Raffle__TransferFailed",
      "type": "error"
    },
    {
      "inputs": [
        {
          "internalType": "uint256",
          "name": "currentBalance",
          "type": "uint256"
        },
        {
          "internalType": "uint256",
          "name": "numOfPlayers",
          "type": "uint256"
        },
        {
          "internalType": "uint256",
          "name": "raffleState",
          "type": "uint256"
        }
      ],
      "name": "Raffle__UpkeepNotEnough",
      "type": "error"
    },
    {
      "anonymous": false,
      "inputs": [
        {
          "indexed": true,
          "internalType": "address",
          "name": "player",
          "type": "address"
        }
      ],
      "name": "RaffleEnter",
      "type": "event"
    },
    {
      "anonymous": false,
      "inputs": [
        {
          "indexed": true,
          "internalType": "uint256",
          "name": "requestId",
          "type": "uint256"
        }
      ],
      "name": "RequestedRaffleWinner",
      "type": "event"
    },
    {
      "anonymous": false,
      "inputs": [
        {
          "indexed": true,
          "internalType": "address",
          "name": "winner",
          "type": "address"
        }
      ],
      "name": "WinnerPicked",
      "type": "event"
    },
    {
      "stateMutability": "payable",
      "type": "fallback"
    },
    {
      "inputs": [
        {
          "internalType": "bytes",
          "name": "",
          "type": "bytes"
        }
      ],
      "name": "checkUpkeep",
      "outputs": [
        {
          "internalType": "bool",
          "name": "upkeepNeeded",
          "type": "bool"
        },
        {
          "internalType": "bytes",
          "name": "",
          "type": "bytes"
        }
      ],
      "stateMutability": "view",
      "type": "function"
    },
    {
      "inputs": [],
      "name": "enterRaffle",
      "outputs": [],
      "stateMutability": "payable",
      "type": "function"
    },
    {
      "inputs": [],
      "name": "getBlockConfirmations",
      "outputs": [
        {
          "internalType": "uint256",
          "name": "",
          "type": "uint256"
        }
      ],
      "stateMutability": "pure",
      "type": "function"
    },
    {
      "inputs": [],
      "name": "getEntranceFee",
      "outputs": [
        {
          "internalType": "uint256",
          "name": "",
          "type": "uint256"
        }
      ],
      "stateMutability": "view",
      "type": "function"
    },
    {
      "inputs": [],
      "name": "getInterval",
      "outputs": [
        {
          "internalType": "uint256",
          "name": "",
          "type": "uint256"
        }
      ],
      "stateMutability": "view",
      "type": "function"
    },
    {
      "inputs": [],
      "name": "getLatestTimestamp",
      "outputs": [
        {
          "internalType": "uint256",
          "name": "",
          "type": "uint256"
        }
      ],
      "stateMutability": "view",
      "type": "function"
    },
    {
      "inputs": [],
      "name": "getNumOfWords",
      "outputs": [
        {
          "internalType": "uint256",
          "name": "",
          "type": "uint256"
        }
      ],
      "stateMutability": "pure",
      "type": "function"
    },
    {
      "inputs": [],
      "name": "getNumberOfPlayers",
      "outputs": [
        {
          "internalType": "uint256",
          "name": "",
          "type": "uint256"
        }
      ],
      "stateMutability": "view",
      "type": "function"
    },
    {
      "inputs": [
        {
          "internalType": "uint256",
          "name": "index",
          "type": "uint256"
        }
      ],
      "name": "getPlayers",
      "outputs": [
        {
          "internalType": "address",
          "name": "",
          "type": "address"
        }
      ],
      "stateMutability": "view",
      "type": "function"
    },
    {
      "inputs": [],
      "name": "getRaffleState",
      "outputs": [
        {
          "internalType": "enum Raffle.RaffleState",
          "name": "",
          "type": "uint8"
        }
      ],
      "stateMutability": "view",
      "type": "function"
    },
    {
      "inputs": [],
      "name": "getRecentWinner",
      "outputs": [
        {
          "internalType": "address",
          "name": "",
          "type": "address"
        }
      ],
      "stateMutability": "view",
      "type": "function"
    },
    {
      "inputs": [
        {
          "internalType": "bytes",
          "name": "",
          "type": "bytes"
        }
      ],
      "name": "performUpkeep",
      "outputs": [],
      "stateMutability": "nonpayable",
      "type": "function"
    },
    {
      "inputs": [
        {
          "internalType": "uint256",
          "name": "requestId",
          "type": "uint256"
        },
        {
          "internalType": "uint256[]",
          "name": "randomWords",
          "type": "uint256[]"
        }
      ],
      "name": "rawFulfillRandomWords",
      "outputs": [],
      "stateMutability": "nonpayable",
      "type": "function"
    },
    {
      "stateMutability": "payable",
      "type": "receive"
    }
  ],
  "transactionHash": "0xb040ed0bb12a1dbf3ae9354863dc80861e36fcfda9bec01e7a63696890c384f4",
  "args": [
    "0x5FbDB2315678afecb367f032d93F642f64180aa3",
    "10000000000000000",
    "0x474e34a077df58807dbe9c96d3c009b23b3c6d0cce433e59bbf5b34f823bc56c",
    "1",
    "500000",
    "50"
  ],
  "numDeployments": 1,
  "solcInputHash": "b6f8b14b763450db03bec6198a32ec3a",
  "bytecode": "0x6101606040523480156200001257600080fd5b506040516200183a3803806200183a8339818101604052810190620000389190620002a0565b858073ffffffffffffffffffffffffffffffffffffffff1660808173ffffffffffffffffffffffffffffffffffffffff1660601b81525050508460a081815250508573ffffffffffffffffffffffffffffffffffffffff1660c08173ffffffffffffffffffffffffffffffffffffffff1660601b815250508163ffffffff166101208163ffffffff1660e01b815250508360e081815250508267ffffffffffffffff166101008167ffffffffffffffff1660c01b815250506000600160146101000a81548160ff021916908360018111156200011957620001186200033c565b5b0217905550426002819055508061014081815250505050505050506200036b565b600080fd5b600073ffffffffffffffffffffffffffffffffffffffff82169050919050565b60006200016c826200013f565b9050919050565b6200017e816200015f565b81146200018a57600080fd5b50565b6000815190506200019e8162000173565b92915050565b6000819050919050565b620001b981620001a4565b8114620001c557600080fd5b50565b600081519050620001d981620001ae565b92915050565b6000819050919050565b620001f481620001df565b81146200020057600080fd5b50565b6000815190506200021481620001e9565b92915050565b600067ffffffffffffffff82169050919050565b62000239816200021a565b81146200024557600080fd5b50565b60008151905062000259816200022e565b92915050565b600063ffffffff82169050919050565b6200027a816200025f565b81146200028657600080fd5b50565b6000815190506200029a816200026f565b92915050565b60008060008060008060c08789031215620002c057620002bf6200013a565b5b6000620002d089828a016200018d565b9650506020620002e389828a01620001c8565b9550506040620002f689828a0162000203565b94505060606200030989828a0162000248565b93505060806200031c89828a0162000289565b92505060a06200032f89828a01620001c8565b9150509295509295509295565b7f4e487b7100000000000000000000000000000000000000000000000000000000600052602160045260246000fd5b60805160601c60a05160c05160601c60e0516101005160c01c6101205160e01c61014051611453620003e76000396000818161081f015261088d015260006106a3015260006106800152600061065f0152600061062301526000818161030201526103ff01526000818161033f015261039301526114536000f3fe6080604052600436106100c65760003560e01c8063473f1ddc1161007f578063b7cddfe011610059578063b7cddfe014610252578063d5eceb711461027d578063f43b52cb146102a8578063fd6673f5146102d3576100cd565b8063473f1ddc146101be5780636e04ff0d146101e957806391ad27b414610227576100cd565b806309bc33a7146100cf578063115cbaf5146100fa5780631fe543e3146101255780632cfcc5391461014e5780634585e33b14610158578063460e204914610181576100cd565b366100cd57005b005b3480156100db57600080fd5b506100e46102fe565b6040516100f19190610bd4565b60405180910390f35b34801561010657600080fd5b5061010f610326565b60405161011c9190610c66565b60405180910390f35b34801561013157600080fd5b5061014c60048036038101906101479190610e1a565b61033d565b005b6101566103fd565b005b34801561016457600080fd5b5061017f600480360381019061017a9190610ed1565b61056c565b005b34801561018d57600080fd5b506101a860048036038101906101a39190610f1e565b61076b565b6040516101b59190610f8c565b60405180910390f35b3480156101ca57600080fd5b506101d36107b2565b6040516101e09190610f8c565b60405180910390f35b3480156101f557600080fd5b50610210600480360381019061020b919061105c565b6107dc565b60405161021e929190611148565b60405180910390f35b34801561023357600080fd5b5061023c610889565b6040516102499190610bd4565b60405180910390f35b34801561025e57600080fd5b506102676108b1565b6040516102749190610bd4565b60405180910390f35b34801561028957600080fd5b506102926108be565b60405161029f9190610bd4565b60405180910390f35b3480156102b457600080fd5b506102bd6108cd565b6040516102ca9190610bd4565b60405180910390f35b3480156102df57600080fd5b506102e86108d7565b6040516102f59190610bd4565b60405180910390f35b60007f0000000000000000000000000000000000000000000000000000000000000000905090565b6000600160149054906101000a900460ff16905090565b7f000000000000000000000000000000000000000000000000000000000000000073ffffffffffffffffffffffffffffffffffffffff163373ffffffffffffffffffffffffffffffffffffffff16146103ef57337f00000000000000000000000000000000000000000000000000000000000000006040517f1cf993f40000000000000000000000000000000000000000000000000000000081526004016103e6929190611178565b60405180910390fd5b6103f982826108e3565b5050565b7f0000000000000000000000000000000000000000000000000000000000000000341015610457576040517fbd4e069500000000000000000000000000000000000000000000000000000000815260040160405180910390fd5b6000600181111561046b5761046a610bef565b5b600160149054906101000a900460ff16600181111561048d5761048c610bef565b5b146104c4576040517f1425571c00000000000000000000000000000000000000000000000000000000815260040160405180910390fd5b6000339080600181540180825580915050600190039060005260206000200160009091909190916101000a81548173ffffffffffffffffffffffffffffffffffffffff021916908373ffffffffffffffffffffffffffffffffffffffff1602179055503373ffffffffffffffffffffffffffffffffffffffff167f0805e1d667bddb8a95f0f09880cf94f403fb596ce79928d9f29b74203ba284d460405160405180910390a2565b6000610586604051806020016040528060008152506107dc565b509050806105f55747600080549050600160149054906101000a900460ff1660018111156105b7576105b6610bef565b5b6040517f6eb867fc0000000000000000000000000000000000000000000000000000000081526004016105ec939291906111a1565b60405180910390fd5b60018060146101000a81548160ff0219169083600181111561061a57610619610bef565b5b021790555060007f000000000000000000000000000000000000000000000000000000000000000073ffffffffffffffffffffffffffffffffffffffff16635d3b1d307f00000000000000000000000000000000000000000000000000000000000000007f000000000000000000000000000000000000000000000000000000000000000060037f000000000000000000000000000000000000000000000000000000000000000060016040518663ffffffff1660e01b81526004016106e4959493929190611250565b602060405180830381600087803b1580156106fe57600080fd5b505af1158015610712573d6000803e3d6000fd5b505050506040513d601f19601f8201168201806040525081019061073691906112b8565b9050807fcd6e45c8998311cab7e9d4385596cac867e20a0587194b954fa3a731c93ce78b60405160405180910390a250505050565b60008082815481106107805761077f6112e5565b5b9060005260206000200160009054906101000a900473ffffffffffffffffffffffffffffffffffffffff169050919050565b6000600160009054906101000a900473ffffffffffffffffffffffffffffffffffffffff16905090565b600060606000600160149054906101000a900460ff16600181111561080457610803610bef565b5b6000600181111561081857610817610bef565b5b14905060007f00000000000000000000000000000000000000000000000000000000000000006002544261084c9190611343565b1190506000806000805490501190506000804711905083801561086c5750825b80156108755750815b801561087e5750805b955050505050915091565b60007f0000000000000000000000000000000000000000000000000000000000000000905090565b6000600361ffff16905090565b6000600163ffffffff16905090565b6000600254905090565b60008080549050905090565b60008080549050826000815181106108fe576108fd6112e5565b5b602002602001015161091091906113a6565b90506000808281548110610927576109266112e5565b5b9060005260206000200160009054906101000a900473ffffffffffffffffffffffffffffffffffffffff16905080600160006101000a81548173ffffffffffffffffffffffffffffffffffffffff021916908373ffffffffffffffffffffffffffffffffffffffff1602179055506000600160146101000a81548160ff021916908360018111156109bb576109ba610bef565b5b0217905550600067ffffffffffffffff8111156109db576109da610cd7565b5b604051908082528060200260200182016040528015610a095781602001602082028036833780820191505090505b5060009080519060200190610a1f929190610b14565b504260028190555060008173ffffffffffffffffffffffffffffffffffffffff1647604051610a4d90611408565b60006040518083038185875af1925050503d8060008114610a8a576040519150601f19603f3d011682016040523d82523d6000602084013e610a8f565b606091505b5050905080610aca576040517fa1d04b3900000000000000000000000000000000000000000000000000000000815260040160405180910390fd5b8173ffffffffffffffffffffffffffffffffffffffff167f5b690ec4a06fe979403046eaeea5b3ce38524683c3001f662c8b5a829632f7df60405160405180910390a25050505050565b828054828255906000526020600020908101928215610b8d579160200282015b82811115610b8c5782518260006101000a81548173ffffffffffffffffffffffffffffffffffffffff021916908373ffffffffffffffffffffffffffffffffffffffff16021790555091602001919060010190610b34565b5b509050610b9a9190610b9e565b5090565b5b80821115610bb7576000816000905550600101610b9f565b5090565b6000819050919050565b610bce81610bbb565b82525050565b6000602082019050610be96000830184610bc5565b92915050565b7f4e487b7100000000000000000000000000000000000000000000000000000000600052602160045260246000fd5b60028110610c2f57610c2e610bef565b5b50565b6000819050610c4082610c1e565b919050565b6000610c5082610c32565b9050919050565b610c6081610c45565b82525050565b6000602082019050610c7b6000830184610c57565b92915050565b6000604051905090565b600080fd5b600080fd5b610c9e81610bbb565b8114610ca957600080fd5b50565b600081359050610cbb81610c95565b92915050565b600080fd5b6000601f19601f8301169050919050565b7f4e487b7100000000000000000000000000000000000000000000000000000000600052604160045260246000fd5b610d0f82610cc6565b810181811067ffffffffffffffff82111715610d2e57610d2d610cd7565b5b80604052505050565b6000610d41610c81565b9050610d4d8282610d06565b919050565b600067ffffffffffffffff821115610d6d57610d6c610cd7565b5b602082029050602081019050919050565b600080fd5b6000610d96610d9184610d52565b610d37565b90508083825260208201905060208402830185811115610db957610db8610d7e565b5b835b81811015610de25780610dce8882610cac565b845260208401935050602081019050610dbb565b5050509392505050565b600082601f830112610e0157610e00610cc1565b5b8135610e11848260208601610d83565b91505092915050565b60008060408385031215610e3157610e30610c8b565b5b6000610e3f85828601610cac565b925050602083013567ffffffffffffffff811115610e6057610e5f610c90565b5b610e6c85828601610dec565b9150509250929050565b600080fd5b60008083601f840112610e9157610e90610cc1565b5b8235905067ffffffffffffffff811115610eae57610ead610e76565b5b602083019150836001820283011115610eca57610ec9610d7e565b5b9250929050565b60008060208385031215610ee857610ee7610c8b565b5b600083013567ffffffffffffffff811115610f0657610f05610c90565b5b610f1285828601610e7b565b92509250509250929050565b600060208284031215610f3457610f33610c8b565b5b6000610f4284828501610cac565b91505092915050565b600073ffffffffffffffffffffffffffffffffffffffff82169050919050565b6000610f7682610f4b565b9050919050565b610f8681610f6b565b82525050565b6000602082019050610fa16000830184610f7d565b92915050565b600080fd5b600067ffffffffffffffff821115610fc757610fc6610cd7565b5b610fd082610cc6565b9050602081019050919050565b82818337600083830152505050565b6000610fff610ffa84610fac565b610d37565b90508281526020810184848401111561101b5761101a610fa7565b5b611026848285610fdd565b509392505050565b600082601f83011261104357611042610cc1565b5b8135611053848260208601610fec565b91505092915050565b60006020828403121561107257611071610c8b565b5b600082013567ffffffffffffffff8111156110905761108f610c90565b5b61109c8482850161102e565b91505092915050565b60008115159050919050565b6110ba816110a5565b82525050565b600081519050919050565b600082825260208201905092915050565b60005b838110156110fa5780820151818401526020810190506110df565b83811115611109576000848401525b50505050565b600061111a826110c0565b61112481856110cb565b93506111348185602086016110dc565b61113d81610cc6565b840191505092915050565b600060408201905061115d60008301856110b1565b818103602083015261116f818461110f565b90509392505050565b600060408201905061118d6000830185610f7d565b61119a6020830184610f7d565b9392505050565b60006060820190506111b66000830186610bc5565b6111c36020830185610bc5565b6111d06040830184610bc5565b949350505050565b6000819050919050565b6111eb816111d8565b82525050565b600067ffffffffffffffff82169050919050565b61120e816111f1565b82525050565b600061ffff82169050919050565b61122b81611214565b82525050565b600063ffffffff82169050919050565b61124a81611231565b82525050565b600060a08201905061126560008301886111e2565b6112726020830187611205565b61127f6040830186611222565b61128c6060830185611241565b6112996080830184611241565b9695505050505050565b6000815190506112b281610c95565b92915050565b6000602082840312156112ce576112cd610c8b565b5b60006112dc848285016112a3565b91505092915050565b7f4e487b7100000000000000000000000000000000000000000000000000000000600052603260045260246000fd5b7f4e487b7100000000000000000000000000000000000000000000000000000000600052601160045260246000fd5b600061134e82610bbb565b915061135983610bbb565b92508282101561136c5761136b611314565b5b828203905092915050565b7f4e487b7100000000000000000000000000000000000000000000000000000000600052601260045260246000fd5b60006113b182610bbb565b91506113bc83610bbb565b9250826113cc576113cb611377565b5b828206905092915050565b600081905092915050565b50565b60006113f26000836113d7565b91506113fd826113e2565b600082019050919050565b6000611413826113e5565b915081905091905056fea2646970667358221220d1e42e6f083e7967572e761a71809a12bf76434eac219df13b6ab782eb23234564736f6c63430008080033",
  "devdoc": {
    "kind": "dev",
    "methods": {},
    "version": 1
  },
  "userdoc": {
    "kind": "user",
    "methods": {},
    "version": 1
  },
  "storageLayout": {
    "storage": [
      {
        "astId": 299,
        "contract": "contracts/Raffle.sol:Raffle",
        "label": "s_players",
        "offset": 0,
        "slot": "0",
        "type": "t_array(t_address_payable)dyn_storage"
      },
      {
        "astId": 316,
        "contract": "contracts/Raffle.sol:Raffle",
        "label": "s_recentWinner",
        "offset": 0,
        "slot": "1",
        "type": "t_address"
      },
      {
        "astId": 319,
        "contract": "contracts/Raffle.sol:Raffle",
        "label": "s_raffleState",
        "offset": 20,
        "slot": "1",
        "type": "t_enum(RaffleState)294"
      },
      {
        "astId": 321,
        "contract": "contracts/Raffle.sol:Raffle",
        "label": "s_lastTimeStamp",
        "offset": 0,
        "slot": "2",
        "type": "t_uint256"
      }
    ],
    "types": {
      "t_address": {
        "encoding": "inplace",
        "label": "address",
        "numberOfBytes": "20"
      },
      "t_address_payable": {
        "encoding": "inplace",
        "label": "address payable",
        "numberOfBytes": "20"
      },
      "t_array(t_address_payable)dyn_storage": {
        "base": "t_address_payable",
        "encoding": "dynamic_array",
        "label": "address payable[]",
        "numberOfBytes": "32"
      },
      "t_enum(RaffleState)294": {
        "encoding": "inplace",
        "label": "enum Raffle.RaffleState",
        "numberOfBytes": "1"
      },
      "t_uint256": {
        "encoding": "inplace",
        "label": "uint256",
        "numberOfBytes": "32"
      }
    }
  }
}